:020000040800F2
:100000000028002019240008692400086924000839
:100010006924000869240008692400080000000021
:10002000000000000000000000000000692400083B
:100030006924000800000000692400086924000801
:10004000692400086924000869240008692400085C
:10005000692400086924000869240008692400084C
:10006000692400086924000869240008692400083C
:10007000692400086924000869240008692400082C
:10008000692400086924000869240008692400081C
:10009000692400086924000869240008692400080C
:1000A000692400086923000885230008A1230008AB
:1000B000BD230008DD230008692400086924000826
:1000C00069240008692400086924000869240008DC
:1000D00069240008692400086924000869240008CC
:1000E0006924000869240008000000006924000851
:1000F00069240008692400086924000869240008AC
:10010000692400086924000869240008692400089B
:10011000692400086924000869240008692400088B
:10012000692400086924000869240008692400087B
:1001300010B5054C237833B9044B13B10448AFF321
:1001400000800123237010BDF8070020000000008C
:10015000B424000808B5034B1BB103490348AFF3AF
:10016000008008BD00000000FC070020B424000847
:1001700081F0004102E000BF83F0004330B54FEA58
:1001800041044FEA430594EA050F08BF90EA020FC5
:100190001FBF54EA000C55EA020C7FEA645C7FEA58
:1001A000655C00F0E2804FEA5454D4EB5555B8BF7B
:1001B0006D420CDD2C4480EA020281EA030382EAEC
:1001C000000083EA010180EA020281EA0303362D7E
:1001D00088BF30BD11F0004F4FEA01314FF4801C51
:1001E0004CEA113102D0404261EB410113F0004F63
:1001F0004FEA03334CEA133302D0524263EB43031A
:1002000094EA050F00F0A780A4F10104D5F1200EB7
:100210000DDB02FA0EFC22FA05F2801841F1000112
:1002200003FA0EF2801843FA05F359410EE0A5F1E6
:1002300020050EF1200E012A03FA0EFC28BF4CF017
:10024000020C43FA05F3C01851EBE37101F00045CD
:1002500007D54FF0000EDCF1000C7EEB00006EEBDA
:100260000101B1F5801F1BD3B1F5001F0CD3490864
:100270005FEA30004FEA3C0C04F101044FEA4452BB
:1002800012F5800F80F09A80BCF1004F08BF5FEA42
:10029000500C50F1000041EB045141EA050130BD22
:1002A0005FEA4C0C404141EB010111F4801FA4F1C5
:1002B0000104E9D191F0000F04BF01460020B1FA1A
:1002C00081F308BF2033A3F10B03B3F120020CDA52
:1002D0000C3208DD02F1140CC2F10C0201FA0CF030
:1002E00021FA02F10CE002F11402D8BFC2F1200C95
:1002F00001FA02F120FA0CFCDCBF41EA0C0190404B
:10030000E41AA2BF01EB0451294330BD6FEA040493
:100310001F3C1CDA0C340EDC04F11404C4F120027E
:1003200020FA04F001FA02F340EA030021FA04F390
:1003300045EA030130BDC4F10C04C4F1200220FAE7
:1003400002F001FA04F340EA0300294630BD21FA25
:1003500004F0294630BD94F0000F83F4801306BFEB
:1003600081F480110134013D4EE77FEA645C18BFDF
:100370007FEA655C29D094EA050F08BF90EA020F76
:1003800005D054EA000C04BF1946104630BD91EA6E
:10039000030F1EBF0021002030BD5FEA545C05D171
:1003A0004000494128BF41F0004130BD14F58004B0
:1003B0003CBF01F5801130BD01F0004545F0FE4124
:1003C00041F470014FF0000030BD7FEA645C1ABF59
:1003D000194610467FEA655C1CBF0B46024650EA90
:1003E000013406BF52EA033591EA030F41F40021BC
:1003F00030BD00BF90F0000F04BF0021704730B542
:100400004FF4806404F132044FF000054FF0000116
:1004100050E700BF90F0000F04BF0021704730B5D7
:100420004FF4806404F1320410F0004548BF4042AC
:100430004FF000013EE700BF42004FEAE2014FEA01
:1004400031014FEA02701FBF12F07F4393F07F4FDC
:1004500081F06051704732F07F4208BF704793F0DF
:100460007F4F04BF41F40021704730B54FF46074F2
:1004700001F0004521F000411CE700BF50EA0102F5
:1004800008BF704730B54FF000050AE050EA01029E
:1004900008BF704730B511F0004502D5404261EB0E
:1004A00041014FF4806404F132045FEA915C3FF44F
:1004B000D8AE4FF003025FEADC0C18BF03325FEAEC
:1004C000DC0C18BF033202EBDC02C2F1200300FA9D
:1004D00003FC20FA02F001FA03FE40EA0E0021FAC2
:1004E00002F11444BDE600BF70B54FF0FF0C4CF4B0
:1004F000E06C1CEA11541DBF1CEA135594EA0C0F62
:1005000095EA0C0F00F0DEF82C4481EA030621EA9C
:100510004C5123EA4C5350EA013518BF52EA0335D7
:1005200041F4801143F4801338D0A0FB02CE4FF089
:100530000005E1FB02E506F00042E0FB03E54FF0B9
:100540000006E1FB03569CF0000F18BF4EF0010EB1
:10055000A4F1FF04B6F5007F64F5407404D25FEAAD
:100560004E0E6D4146EB060642EAC62141EA555160
:100570004FEAC52040EA5E504FEACE2EB4F1FD0CA2
:1005800088BFBCF5E06F1ED8BEF1004F08BF5FEA20
:10059000500E50F1000041EB045170BD06F00046D2
:1005A00046EA010140EA020081EA0301B4EB5C047F
:1005B000C2BFD4EB0C0541EA045170BD41F4801177
:1005C0004FF0000E013C00F3AB8014F1360FDEBF9C
:1005D000002001F0004170BDC4F10004203C35DA78
:1005E0000C341BDC04F11404C4F1200500FA05F3FB
:1005F00020FA04F001FA05F240EA020001F000429C
:1006000021F0004110EBD37021FA04F642EB060111
:100610005EEA430E08BF20EAD37070BDC4F10C043B
:10062000C4F1200500FA04F320FA05F001FA04F2FF
:1006300040EA020001F0004110EBD37041F10001EB
:100640005EEA430E08BF20EAD37070BDC4F12005F6
:1006500000FA05F24EEA020E20FA04F301FA05F25E
:1006600043EA020321FA04F001F0004121FA04F206
:1006700020EA020000EBD3705EEA430E08BF20EAD6
:10068000D37070BD94F0000F0FD101F00046400010
:1006900041EB010111F4801F08BF013CF7D041EA92
:1006A000060195F0000F18BF704703F00046520096
:1006B00043EB030313F4801F08BF013DF7D043EA67
:1006C0000603704794EA0C0F0CEA135518BF95EA1D
:1006D0000C0F0CD050EA410618BF52EA4306D1D1A4
:1006E00081EA030101F000414FF0000070BD50EAC3
:1006F000410606BF1046194652EA430619D094EA4D
:100700000C0F02D150EA013613D195EA0C0F05D136
:1007100052EA03361CBF104619460AD181EA03018A
:1007200001F0004141F0FE4141F470014FF0000042
:1007300070BD41F0FE4141F4780170BD70B54FF0DD
:10074000FF0C4CF4E06C1CEA11541DBF1CEA13555D
:1007500094EA0C0F95EA0C0F00F0A7F8A4EB05043F
:1007600081EA030E52EA03354FEA013100F0888036
:100770004FEA03334FF0805545EA131343EA1263FF
:100780004FEA022245EA111545EA10654FEA0026B4
:100790000EF000419D4208BF964244F1FD0404F56D
:1007A000407402D25B084FEA3202B61A65EB0305C9
:1007B0005B084FEA32024FF480104FF4002CB6EB86
:1007C000020E75EB030E22BFB61A754640EA0C0006
:1007D0005B084FEA3202B6EB020E75EB030E22BF46
:1007E000B61A754640EA5C005B084FEA3202B6EB87
:1007F000020E75EB030E22BFB61A754640EA9C0046
:100800005B084FEA3202B6EB020E75EB030E22BF15
:10081000B61A754640EADC0055EA060E18D04FEAD3
:10082000051545EA16754FEA06164FEAC30343EA73
:1008300052734FEAC2025FEA1C1CC0D111F4801F40
:100840000BD141EA00014FF000004FF0004CB6E739
:1008500011F4801F04BF01430020B4F1FD0C88BFD8
:10086000BCF5E06F3FF6AFAEB5EB030C04BFB6EBE3
:10087000020C5FEA500C50F1000041EB045170BDD6
:100880000EF0004E4EEA113114EB5C04C2BFD4EB03
:100890000C0541EA045170BD41F480114FF0000E87
:1008A000013C90E645EA060E8DE60CEA135594EA03
:1008B0000C0F08BF95EA0C0F3FF43BAF94EA0C0F06
:1008C0000AD150EA01347FF434AF95EA0C0F7FF47B
:1008D00025AF104619462CE795EA0C0F06D152EACF
:1008E00003353FF4FDAE1046194622E750EA4106B3
:1008F00018BF52EA43067FF4C5AE50EA41047FF4C4
:100900000DAF52EA43057FF4EBAE12E74FEA410226
:10091000B2F1E04324BFB3F5001CDCF1FE5C0DD95D
:1009200001F0004C4FEAC0024CEA5070B2F1004FA7
:1009300040EB830008BF20F00100704711F0804FAA
:1009400021D113F13872BCBF01F00040704741F46F
:1009500080114FEA5252C2F11802C2F1200C10FA73
:100960000CF320FA02F018BF40F001004FEAC12357
:100970004FEAD32303FA0CFC40EA0C0023FA02F3FB
:100980004FEA4303CCE77FEA625307D150EA0133D1
:100990001EBF4FF0FE4040F44000704701F00040A1
:1009A00040F0FE4040F40000704700BF80F000407F
:1009B00002E000BF81F0004142001FBF5FEA410337
:1009C00092EA030F7FEA226C7FEA236C6AD04FEA37
:1009D0001262D2EB1363C1BFD2184140484041407C
:1009E000B8BF5B42192B88BF704710F0004F40F42E
:1009F000000020F07F4018BF404211F0004F41F44A
:100A0000000121F07F4118BF494292EA030F3FD015
:100A1000A2F1010241FA03FC10EB0C00C3F1200328
:100A200001FA03F100F0004302D5494260EB4000B7
:100A3000B0F5000F13D3B0F1807F06D340084FEA22
:100A4000310102F10102FE2A51D2B1F1004F40EB17
:100A5000C25008BF20F0010040EA0300704749007F
:100A600040EB000010F4000FA2F10102EDD1B0FA4A
:100A700080FCACF1080CB2EB0C0200FA0CF0AABF3F
:100A800000EBC25052421843BCBFD04018437047DD
:100A900092F0000F81F4000106BF80F400000132E3
:100AA000013BB5E74FEA41037FEA226C18BF7FEABA
:100AB000236C21D092EA030F04D092F0000F08BFFC
:100AC0000846704790EA010F1CBF0020704712F0E3
:100AD0007F4F04D1400028BF40F00040704712F122
:100AE00000723CBF00F50000704700F0004343F087
:100AF000FE4040F4000070477FEA226216BF0846BD
:100B00007FEA23630146420206BF5FEA412390EA7F
:100B1000010F40F4800070474FF0000304E000BF75
:100B200010F0004348BF40425FEA000C08BF704726
:100B300043F0964301464FF000001CE050EA0102EA
:100B400008BF70474FF000030AE000BF50EA0102FF
:100B500008BF704711F0004302D5404261EB4101EC
:100B60005FEA010C02BF84460146002043F0B64311
:100B700008BFA3F18053A3F50003BCFA8CF2083A36
:100B8000A3EBC25310DB01FA02FC634400FA02FC3F
:100B9000C2F12002BCF1004F20FA02F243EB020046
:100BA00008BF20F00100704702F1200201FA02FCA8
:100BB000C2F1200250EA4C0021FA02F243EB02009B
:100BC00008BF20EADC7070474FF0FF0C1CEAD052DF
:100BD0001EBF1CEAD15392EA0C0F93EA0C0F6FD0A0
:100BE0001A4480EA010C400218BF5FEA41211ED07E
:100BF0004FF0006343EA501043EA5111A0FB01316A
:100C00000CF00040B1F5000F3EBF490041EAD3713E
:100C10005B0040EA010062F17F02FD2A1DD8B3F1BA
:100C2000004F40EBC25008BF20F00100704790F029
:100C3000000F0CF0004C08BF49024CEA502040EA7B
:100C400051207F3AC2BFD2F1FF0340EAC250704741
:100C500040F400004FF00003013A5DDC12F1190F7F
:100C6000DCBF00F000407047C2F10002410021FAF1
:100C700002F1C2F1200200FA02FC5FEA310040F109
:100C8000000053EA4C0308BF20EADC70704792F082
:100C9000000F00F0004C02BF400010F4000F013ABA
:100CA000F9D040EA0C0093F0000F01F0004C02BFB5
:100CB000490011F4000F013BF9D041EA0C018FE724
:100CC0000CEAD15392EA0C0F18BF93EA0C0F0AD02A
:100CD00030F0004C18BF31F0004CD8D180EA010050
:100CE00000F00040704790F0000F17BF90F0004FE9
:100CF000084691F0000F91F0004F14D092EA0C0FCB
:100D000001D142020FD193EA0C0F03D14B0218BF5D
:100D1000084608D180EA010000F0004040F0FE40A3
:100D200040F40000704740F0FE4040F4400070473F
:100D30004FF0FF0C1CEAD0521EBF1CEAD15392EABE
:100D40000C0F93EA0C0F69D0A2EB030280EA010CAE
:100D500049024FEA402037D04FF0805343EA111147
:100D600043EA10130CF000408B4238BF5B0042F1A5
:100D70007D024FF4000C8B4224BF5B1A40EA0C004A
:100D8000B3EB510F24BFA3EB510340EA5C00B3EB7C
:100D9000910F24BFA3EB910340EA9C00B3EBD10F6A
:100DA00024BFA3EBD10340EADC001B0118BF5FEABC
:100DB0001C1CE0D1FD2A3FF650AF8B4240EBC250E5
:100DC00008BF20F0010070470CF0004C4CEA5020A6
:100DD0007F32C2BFD2F1FF0340EAC250704740F4F5
:100DE00000004FF00003013A37E792F0000F00F0E7
:100DF000004C02BF400010F4000F013AF9D040EA65
:100E00000C0093F0000F01F0004C02BF490011F4F8
:100E1000000F013BF9D041EA0C0195E70CEAD153F0
:100E200092EA0C0F08D142027FF47DAF93EA0C0FD7
:100E30007FF470AF084676E793EA0C0F04D14B02BB
:100E40003FF44CAF08466EE730F0004C18BF31F06D
:100E5000004CCAD130F000427FF45CAF31F0004367
:100E60007FF43CAF5FE700BF4FF0FF3C06E000BF00
:100E70004FF0010C02E000BF4FF0010C4DF804CD23
:100E80004FEA40024FEA41037FEA226C18BF7FEA33
:100E9000236C11D001B052EA530C18BF90EA010F35
:100EA00058BFB2EB030088BFC81738BF6FEAE170C4
:100EB00018BF40F0010070477FEA226C02D15FEA60
:100EC000402C05D17FEA236CE4D15FEA412CE1D0CC
:100ED0005DF8040B704700BF844608466146FFE793
:100EE0000FB5FFF7C9FF002848BF10F1000F0FBD75
:100EF0004DF808EDFFF7F4FF0CBF012000205DF86E
:100F000008FB00BF4DF808EDFFF7EAFF34BF0120F2
:100F100000205DF808FB00BF4DF808EDFFF7E0FF8B
:100F200094BF012000205DF808FB00BF4DF808EDDC
:100F3000FFF7D2FF94BF012000205DF808FB00BF3F
:100F40004DF808EDFFF7C8FF34BF012000205DF821
:100F500008FB00BF4FEA4002B2F1FE4F0FD34FF043
:100F60009E03B3EB12620DD94FEA002343F0004316
:100F700010F0004F23FA02F018BF404270474FF0C4
:100F80000000704712F1610F01D1420205D110F04B
:100F9000004008BF6FF0004070474FF000007047FE
:100FA00042000ED2B2F1FE4F0BD34FF09E03B3EBD3
:100FB000126209D44FEA002343F0004323FA02F0FF
:100FC00070474FF00000704712F1610F01D14202EB
:100FD00002D14FF0FF3070474FF00000704700BF64
:100FE00090B583B000AF00237B6000233B603E4B95
:100FF0005B6B7B6000BF3C4B9B6B3B6000BF3B4B24
:101000001B78002B06D13A4A7B681360374B0122CC
:101010001A7064E0374A7B681360374A3B68136094
:10102000344B1A68324B1B689A4207D9314B1A6805
:101030002F4B1B68D31A314A136009E02D4B1A68F5
:101040002B4B1B68D31A03F57F43FF332B4A1360E6
:10105000294B1A68264B1B689A4207D9264B1A68F7
:10106000234B1B68D31A264A136009E0224B1A68E7
:101070001F4B1B68D31A03F57F43FF33204A1360CD
:101080001E4B1B68012B2AD91C4B1B681846FFF707
:1010900043FD034619461B48FFF74AFE03461A461E
:1010A000194B1A60164B1B68642202FB03F31846A7
:1010B000FFF732FD0446114B1B681846FFF72CFD65
:1010C000034619462046FFF733FE03461846FFF74E
:1010D00067FF02460D4B1A60044B00221A7000BFD6
:1010E0000C37BD4690BD00BF00040040240800201E
:1010F000280800202C080020300800203408002098
:10110000380800200024F44A1408002018080020A1
:1011100080B584B000AF78607B68642B5ED805230F
:10112000FB6007E0FB68DBB2184600F04FFDFB6890
:101130000133FB60FB68072BF4DD7A6813461B0163
:101140009B1A9B001A46274BA3FB02235B09BB603B
:1011500007220721002000F071FD0722072105204A
:1011600000F08EFDBB68DBB20733DBB20522194607
:10117000082000F063FDBB68DBB20733DBB21A4620
:101180000721052000F07CFDBB68DBB20733DBB232
:1011900007224321184600F051FD43220721052074
:1011A00000F06EFDBB68DBB24333DBB205221946AB
:1011B000442000F043FDBB68DBB24333DBB21A4688
:1011C0000721052000F05CFDBB68DBB24333DBB2D6
:1011D00007227F21184600F031FD00E000BF1037E4
:1011E000BD4680BD1F85EB5180B582B000AF0020A9
:1011F00000F0ECFC00F058F878600022002108486C
:1012000000F0B8FB00222321786800F043FC0022A4
:101210005A21044800F0AEFB00BF0837BD4680BD30
:10122000CC240008D424000880B582B000AF01208F
:1012300000F0CCFC00F084F878600122002108481E
:1012400000F098FB01222321786800F0BBFB01220B
:101250003721044800F08EFB00BF0837BD4680BD33
:10126000D8240008E024000880B582B000AF022036
:1012700000F0ACFC00F028F8786002220021084859
:1012800000F078FB02223221786800F003FC022291
:101290006421044800F06EFB00BF0837BD4680BDE6
:1012A000E4240008EC24000880B500AF044B1B6860
:1012B00004491846FFF73CFD0346184680BD00BFB1
:1012C0001408002000007A4490B583B000AF194B99
:1012D0001B681846FFF73EFE03467B60154B1B68F4
:1012E0004FF000011846FFF703FE0346002B01D024
:1012F00001237B607868FFF78DF803460C461A4699
:1013000023464FF000000C49FFF718FA03460C463D
:10131000184621464FF00002084BFFF7E5F8034658
:101320000C4618462146FFF7F1FA034618460C37DB
:10133000BD4690BD140800200000F03F00408F40E3
:1013400080B400AF024B1B681846BD4680BC704796
:101350001808002080B500AF00F066FA4FF080401A
:1013600000F0DEFD024800F0DBFD00BF80BD00BFE5
:101370000004004080B582B002AF01230093002337
:1013800001220021094800F0BFFE084800F0BAFF22
:10139000074800F0DBFF0023009301230122012115
:1013A000024800F0B1FE00BFBD4680BD0004004011
:1013B000E10F000880B582B000AF786039603B680B
:1013C0007A6802214FF0804000F0F8FD00BF083736
:1013D000BD4680BD80B500AFFFF766FF02460C4BEF
:1013E0001A60FFF7ADFF03461846FFF795FB02466C
:1013F000084B1A60FFF7F8FEFFF716FFFFF734FF00
:10140000054B1B681846FFF783FE00BF80BD00BF79
:101410001C080020200800201808002080B500AF1C
:10142000FFF742FF02461C4B1B6819461046FFF7A8
:101430005FFD0346002B08D1FFF736FF0246164B2F
:101440001A60FFF7D1FEFFF70FFFFFF779FF0346A2
:101450001846FFF761FB0246104B1B681946104601
:10146000FFF746FD0346002B00D013E0FFF768FFAF
:1014700003461846FFF750FB0246084B1A60FFF779
:10148000D3FE064B1B681846FFF78AFD0346184635
:10149000FFF73EFE00BF80BD1C0800202008002092
:1014A00080B483B000AF0346FB71FB791A4692000B
:1014B00013445B00FB7102E0FB79013BFB71FB799C
:1014C000002BF9D100BF0C37BD4680BC704700002F
:1014D00080B582B000AF0346FB710120FFF7E0FF4B
:1014E000002208213D4800F02AFC0120FFF7D8FF28
:1014F00000220521394800F022FC0120FFF7D0FF2F
:101500000021374800F042FC0120FFF7C9FF01220B
:101510000821324800F013FC0120FFF7C1FFFB79DE
:1015200003F00103DBB21A4605212D4800F007FC49
:10153000FB795B08DBB203F00103DBB21A4604213E
:10154000274800F0FCFBFB799B08DBB203F00103AA
:10155000DBB21A460A21224800F0F1FBFB79DB08D6
:10156000DBB203F00103DBB21A460B211C4800F08A
:10157000E6FBFB791B09DBB203F00103DBB21A4681
:101580000C21174800F0DBFBFB795B09DBB203F0B1
:101590000103DBB21A460D21114800F0D0FBFB79A4
:1015A0009B09DBB203F00103DBB21A460E210C48A3
:1015B00000F0C5FBFB79DB09DBB21A460F210848B6
:1015C00000F0BDFB0120FFF76BFF0022082103485C
:1015D00000F0B5FB00BF0837BD4680BD000C0140E0
:1015E0000008014080B582B000AF0346FB710022C5
:1015F00009210F4800F0A3FB0120FFF751FF012252
:1016000007210B4800F09BFB0120FFF749FF012257
:101610000621074800F093FB0120FFF741FFFB790B
:101620001846FFF755FF00BF0837BD4680BD00BF15
:10163000000C014080B582B000AF03460A46FB7142
:101640001346BB71012209211A4800F078FB0120E2
:10165000FFF726FFBB793F2B14D80122072115483D
:1016600000F06DFB0120FFF71BFF0022062111484F
:1016700000F065FB0120FFF713FFFB791846FFF729
:1016800027FF13E0002207210A4800F058FB012041
:10169000FFF706FF01220621064800F050FB01205B
:1016A000FFF7FEFEFB791846FFF712FF00BF083771
:1016B000BD4680BD000C014080B582B000AF03463E
:1016C000FB710120FFF7ECFEFB7963F04703DBB20F
:1016D00023F04003FB71FB791846FFF783FF00BF3F
:1016E0000837BD4680BD000080B582B000AF03461C
:1016F000FB710120FFF7D4FEFB793F2B23D8FB7948
:1017000043F04003DBB203F07F03FB7100220921A9
:10171000224800F014FB0120FFF7C2FE012207213E
:101720001E4800F00CFB0120FFF7BAFE0022062144
:101730001A4800F004FB0120FFF7B2FEFB791846BF
:10174000FFF7C6FE25E0FB79403BFB71FB7943F0D8
:101750004003DBB203F07F03FB71002209210F4835
:1017600000F0EDFA0120FFF79BFE002207210B4855
:1017700000F0E5FA0120FFF793FE01220621074859
:1017800000F0DDFA0120FFF78BFEFB791846FFF72A
:101790009FFE00BF0837BD4680BD00BF000C014062
:1017A00080B582B000AF03460A46FB711346BB7199
:1017B0000120FFF775FEBB791846FFF77DFFFB7927
:1017C0001846FFF791FF00BF0837BD4680BD80B4C3
:1017D00087B000AF7860396000237B613B68013BD4
:1017E0003B6117E07B697A6813441B78FB733B69A4
:1017F0007A681A447B6979680B4412781A703B69DD
:101800007A681344FA7B1A707B6901337B613B6908
:10181000013B3B617A693B699A42E3DB00BF1C37BD
:10182000BD4680BC7047000080B500AF304B9B695F
:101830002F4A43F0040393612D4B9B692C4A43F0DC
:1018400008039361022207212A4800F03BFA022292
:101850000621284800F036FA02220821254800F027
:1018600031FA02220921234800F02CFA0222052134
:10187000204800F027FA022205211F4800F022FA32
:10188000022204211C4800F01DFA02220A211A48F3
:1018900000F018FA02220B21174800F013FA022276
:1018A0000C21154800F00EFA02220D21124800F01A
:1018B00009FA02220E21104800F004FA02220F2138
:1018C0000D4800F0FFF90120FFF7EAFD3E20FFF789
:1018D00089FE4020FFF786FEB820FFF783FEC02078
:1018E000FFF780FE3F20FFF77DFE00BF80BD00BFF9
:1018F00000100240000C01400008014080B584B097
:1019000000AF0346FB710B46BB7113467B7100238E
:10191000FB60FB680733BB60BB79782B04D97B790C
:1019200001337B710023BB710023FB6017E07A79E0
:10193000BB7911461846FFF733FFFB790C4ADB00F1
:101940001A44FB6813441B78BA7911461846FFF70E
:1019500071FEBB790133BB71FB680133FB60FA6830
:10196000BB689A42E3DD00BF1037BD4680BD00BFB3
:101970000000002080B582B000AF78600B46FB709D
:101980001346BB7015E0FB7807337F2B04D9BB7877
:101990000133BB700023FB707B681B78BA78F97841
:1019A0001846FFF7ABFFFB780733FB707B6801330A
:1019B0007B607B681B78002BE5D100BF0837BD46F4
:1019C00080BD000080B58AB000AF78600B46FB7028
:1019D0001346BB707B68002B0BD130233B73002375
:1019E0007B73BA78F97807F10C031846FFF7C2FF4A
:1019F00048E07B68FB6100233B620AE03B6A0133FD
:101A00003B62FB69214A82FB03129210DB17D31A57
:101A1000FB61FB69002BF1D100237B6220E0796838
:101A20001B4BA3FB0123DA0813469B0013445B0006
:101A3000CA1ABA617B68164AA2FB0323DB087B60E3
:101A4000BB69DAB27B6A0133396ACB1A3032D2B25F
:101A500007F128010B4403F81C2C7B6A01337B62DD
:101A60007A6A3B6A9A42DADB07F10C023B6A13445A
:101A700000221A70BA78F97807F10C031846FFF7BC
:101A800079FF00BF2837BD4680BD00BF6766666628
:101A9000CDCCCCCC80B594B000AF78600B46FB7059
:101AA0001346BB707868FFF755FA0346FB64F86C81
:101AB000FFF736F8034619467868FEF77BFF0346C2
:101AC000BB6400237B64FB6C002B0FDA7B6C5A1C1D
:101AD0007A6407F1500213442D2203F8482CFB6C62
:101AE0005B42FB64BB6C83F00043BB64FA6C354B18
:101AF00083FB02139910D317C91A0B469B000B44A2
:101B00005B00D11ACAB27B6C591C79643032D2B2F4
:101B100007F150010B4403F8482CFB6C294A82FB67
:101B200003129210DB17D31AFB64FB6C002BDDD180
:101B300007F10803796C1846FFF749FE7B6C5A1CC5
:101B40007A6407F1500213442E2203F8482C002334
:101B50003B6423E01C49B86CFFF736F80346BB64CE
:101B6000B86CFFF7F7F90346FB63FB6BDAB27B6CEB
:101B7000591C79643032D2B207F150010B4403F89A
:101B8000482CF86BFEF7CCFF03461946B86CFEF7FD
:101B900011FF0346BB643B6C01333B643B6C032B7E
:101BA000D8DD07F108027B6C134400221A70BA7862
:101BB000F97807F108031846FFF7DCFE00BF50373D
:101BC000BD4680BD676666660000204180B584B072
:101BD00000AF0346FB710120FFF762FCFB79194659
:101BE0000020FFF7DDFD0023FB600AE0002100205C
:101BF000FFF720FD40210020FFF71CFDFB680133AB
:101C0000FB60FB683F2BF1DDFB7919464020FFF7B5
:101C1000C7FD0023FB600AE000210020FFF70AFD5A
:101C200040210020FFF706FDFB680133FB60FB68E5
:101C30003F2BF1DD00BF1037BD4680BD80B584B0BD
:101C400000AF0346FB710B46BB7113467B71FB79FA
:101C5000FB730DE07A79FB7B11461846FFF7A0FD78
:101C6000FB7B19460120FFF7E5FCFB7B0133FB738F
:101C7000FA7BBB799A42EDD900BF1037BD4680BDD3
:101C800080B584B000AF0346FB710B46BB711346B1
:101C90007B71FB79FB730DE0FA7B7B79114618466B
:101CA000FFF77EFD7B791946FF20FFF7C3FCFB7B26
:101CB0000133FB73FA7BBB799A42EDD300BF103737
:101CC000BD4680BD80B483B000AF78600B46FB702A
:101CD0001346BB70FB78072B15D87B681B68FA7816
:101CE00092000F2101FA02F2D2431A407B681A6077
:101CF0007B681B68B978FA78920001FA02F21A43FD
:101D00007B681A6016E07B685B68FA78083A920094
:101D10000F2101FA02F2D2431A407B685A607B68B5
:101D20005B68B978FA78083A920001FA02F21A432D
:101D30007B685A6000BF0C37BD4680BC704780B4DA
:101D400083B000AF78600B46FB701346BB70BB7866
:101D5000012B09D17B68DA68FB78012101FA03F3D2
:101D60001A437B68DA600CE0BB78002B09D17B68F2
:101D7000DA68FB78012101FA03F3DB431A407B6840
:101D8000DA6000BF0C37BD4680BC704780B483B0BA
:101D900000AF786039607B683A68DA6000BF0C3762
:101DA000BD4680BC7047000080B483B000AF0346DE
:101DB000FB71FB7903F01F02064997F907305B09B5
:101DC000012000FA02F241F8232000BF0C37BD4683
:101DD00080BC704700E100E080B582B000AF786061
:101DE0000B46FB701346BB707B68494A93422CD16B
:101DF000FB78032B00F2888001A252F823F000BF89
:101E0000111E00081F1E00082D1E00083B1E0008A2
:101E1000BB781A4608213F48FFF754FF74E0BB78AF
:101E20001A4609213B48FFF74DFF6DE0BB781A4683
:101E30000A213848FFF746FF66E0BB781A460B21B7
:101E40003448FFF73FFF00BF5EE07B68B3F1804F8F
:101E50002BD1FB78032B57D801A252F823F000BFF7
:101E6000711E00087F1E00088D1E00089B1E0008C2
:101E7000BB781A4600212748FFF724FF44E0BB78CF
:101E80001A4601212348FFF71DFF3DE0BB781A46A3
:101E900002212048FFF716FF36E0BB781A460321DF
:101EA0001C48FFF70FFF00BF2EE07B681A4A9342E1
:101EB0002AD1FB78032B27D801A252F823F000BFC8
:101EC000D11E0008DF1E0008ED1E0008FB1E0008E2
:101ED000BB781A4606210F48FFF7F4FE14E0BB78E2
:101EE0001A4607210B48FFF7EDFE0DE0BB781A46B6
:101EF00000210A48FFF7E6FE06E0BB781A460121FA
:101F00000648FFF7DFFE00BF00BF0837BD4680BDB3
:101F1000002C01400008014000040040000C01407A
:101F200080B483B000AF7860214B9B69204A43F0B6
:101F3000010393617B681F4A93420CD11C4B9B6940
:101F40001B4A43F400639361194B9B69184A43F0A1
:101F50000403936126E07B68B3F1804F0CD1144BEE
:101F6000DB69134A43F00103D361114B9B69104AAB
:101F700043F00403936115E07B680F4A934211D14B
:101F80000B4BDB690A4A43F00203D361084B9B69A0
:101F9000074A43F004039361054B9B69044A43F0ED
:101FA0000803936100BF0C37BD4680BC704700BF7B
:101FB00000100240002C01400004004080B584B0B5
:101FC00000AFF8607A603B600B46FB72FB7A0A2236
:101FD0001946F868FFF700FFFB7A032B62D801A2CD
:101FE00052F823F0F51F0008212000084D200008BA
:101FF00079200008FB687A685A63FB689B6943F0A4
:102000007002FB689A61FB689B6943F00802FB68F9
:102010009A61FB681B6A43F00102FB681A6241E0A7
:10202000FB687A689A63FB689B6943F4E042FB684B
:102030009A61FB689B6943F40062FB689A61FB68E4
:102040001B6A43F01002FB681A622BE0FB687A6897
:10205000DA63FB68DB6943F07002FB68DA61FB68F6
:10206000DB6943F00802FB68DA61FB681B6A43F432
:102070008072FB681A6215E0FB687A681A64FB6874
:10208000DB6943F4E042FB68DA61FB68DB6943F437
:102090000062FB68DA61FB681B6A43F48052FB68EC
:1020A0001A6200BFFB686422DA62FB68DB6A3A6886
:1020B00002FB03F3124AB2FBF3F35A1EFB689A6267
:1020C000FB68104A934205D1FB685B6C43F4004205
:1020D000FB685A64FB685B6943F00102FB685A6164
:1020E000FB681B6843F08002FB681A60FB681B6892
:1020F00043F00102FB681A6000BF1037BD4680BD87
:1021000000127A00002C014080B582B000AF7860E8
:10211000084611461A460346FB700B46BB70134631
:102120007B70FB78042219467868FFF755FEFB7830
:10213000032B00F2D98001A252F823F04D210008B0
:10214000B32100081B220008812200087B689A69DD
:10215000BB781A437B689A617B78002B06D17B6839
:102160001B6A23F002027B681A6208E07B78012B6D
:1021700005D17B681B6A43F002027B681A623B7CD4
:10218000012B06D17B68DB6843F002027B68DA60D2
:1021900008E03B7C002B05D17B68DB6823F0020262
:1021A0007B68DA607B681B6A43F001027B681A6215
:1021B0009AE07B689B69BA7812021A437B689A613D
:1021C0007B78002B06D17B681B6A23F020027B689A
:1021D0001A6208E07B78012B05D17B681B6A43F00B
:1021E00020027B681A623B7C012B06D17B68DB688E
:1021F00043F004027B68DA6008E03B7C002B05D1E9
:102200007B68DB6823F004027B68DA607B681B6A0A
:1022100043F010027B681A6266E07B68DA69BB787B
:102220001A437B68DA617B78002B06D17B681B6AD6
:1022300023F400727B681A6208E07B78012B05D1D9
:102240007B681B6A43F400727B681A623B7C012B3B
:1022500006D17B68DB6843F008027B68DA6008E03F
:102260003B7C002B05D17B68DB6823F008027B6890
:10227000DA607B681B6A43F480727B681A6233E021
:102280007B68DB69BA7812021A437B68DA617B7873
:10229000002B06D17B681B6A23F400527B681A620C
:1022A00008E07B78012B05D17B681B6A43F4005260
:1022B0007B681A623B7C012B06D17B68DB6843F0AC
:1022C00002027B68DA6008E03B7C002B05D17B686A
:1022D000DB6823F002027B68DA607B681B6A43F4E8
:1022E00080527B681A6200BF7B684FF6FF72DA6229
:1022F0007B681B6843F001027B681A6000BF0837E7
:10230000BD4680BD80B582B000AF78607B680D4A65
:10231000934203D11B20FFF747FD0EE07B68B3F12A
:10232000804F03D11C20FFF73FFD06E07B68064A83
:10233000934202D11D20FFF737FD00BF0837BD468D
:1023400080BD00BF002C01400004004080B483B079
:1023500000AF7860034A7B68136000BF0C37BD464E
:1023600080BC70474C08002080B500AF044B1B6850
:10237000002B02D0024B1B68984700BF80BD00BFF6
:102380003C08002080B500AF044B1B68002B02D036
:10239000024B1B68984700BF80BD00BF400800206B
:1023A00080B500AF044B1B68002B02D0024B1B68AA
:1023B000984700BF80BD00BF4408002080B500AF33
:1023C000044B1B68002B02D0034B1B68984700BFCF
:1023D00080BD00BF4C0800204808002080B500AF39
:1023E000044B1B68002B02D0024B1B68984700BFB0
:1023F00080BD00BF4C08002080B500AFFEF7AAFFEB
:10240000FEF7B8FF4FF416714F20FEF7D3FFFEF72B
:10241000E1FFFFF703F8FCE70D488546AFF30080C6
:102420000C480D490D4A002302E0D458C45004332F
:10243000C4188C42F9D30A4A0A4C002301E0136005
:102440000432A242FBD300F011F8FFF7D5FFFEE7FC
:102450000028002000000020F8070020F8240008D1
:10246000F807002050080020FEE7000070B50025A6
:102470000C4E0D4CA41BA410A54209D100F01AF873
:1024800000250A4E0A4CA41BA410A54205D170BD1C
:1024900056F8253098470135EEE756F8253098472D
:1024A0000135F2E7F0240008F0240008F0240008C9
:1024B000F4240008F8B500BFF8BC08BC9E4670477D
:0C24C000F8B500BFF8BC08BC9E46704791
:1024CC00465245513A0000004B485A004455545965
:1024DC003A00000025000000504552494F443A0094
:0424EC006D7300000C
:0424F000550100088A
:0424F40031010008AA
:1024F80000000000000000000000000000000000D4
:1025080000000000000000000000000000000000C3
:1025180000000000000000000000000000000000B3
:1025280000000000000000000000000000000000A3
:102538000000000000000000000000000000000093
:102548000000000000000000000000000000000083
:102558000000000000000000000000000000000073
:102568000000000000000000000000000000000063
:102578002020282868B060202020282A2830202001
:102588000080804432242020002424243820202065
:1025980020202020242A1100202020242A11202055
:1025A80030202020242A11202020302030282818EC
:1025B80020242221242A1100242221242A11202027
:1025C80030242221242A112000808040302020201D
:1025D80020202060A060283020202060B0602020CB
:1025E80000302860A06030200004061D252420202B
:1025F800000000000000000000004F000000000084
:10260800000700070000000000147F147F1400007A
:1026180000242A7F2A1200000023130864620000A5
:102628000036495522400000000005030000000064
:10263800001C2241000000000041221C0000000094
:102648000014083E081400000008083E08080000AE
:1026580000002818000000000808080808080808F2
:1026680000303000000000000020100804020000C4
:10267800003E5149453E00000000427F40000000F6
:102688000042615149460000002141454B3100009C
:10269800001814127F100000000027454545390036
:1026A800003C4A4949300000000171090503000057
:1026B800003649494936000000064949291E0000EC
:1026C800000036360000000000005636000000000A
:1026D80000081422410000000024242424240000BF
:1026E8000000412214080000000201510906000000
:1026F80000324979413E0000007E1111117E000030
:10270800007F494949360000003E4141412200000E
:10271800007F4141221C0000007F494949410000D7
:10272800007F090909010000003E4149493A0000BB
:10273800007F0808087F00000000417F410000007A
:10274800002040413F010000007F081422410000A2
:10275800007F404040400000007F020C027F0000E4
:10276800007F0408107F0000003E4141413E000008
:10277800007F0909090600003E4151215E00000062
:10278800007F0919294600000046494949310000DF
:102798000001017F01010000003F4040403F000070
:1027A800001F2040201F0000003F4060403F000005
:1027B800006314081463000000070870080700008D
:1027C8000061514945430000007F4141000000007D
:1027D8000015167C161500000041417F000000001E
:1027E8000004020102040000004040404040000094
:1027F8000001020400000000002054545478000036
:10280800007F444444380000003844444400000039
:1028180000384444487F00000038545454180000DD
:1028280000107E1101020000000C5252523E0000BE
:10283800007F0804047800000000447D4000000088
:10284800002040403D000000007F102844000000A8
:102858000000417F40000000007C0418047800005C
:10286800007C080404780000003844444438000020
:10287800007C14141408000000081414187C0000CC
:10288800007C080404080000004854545420000048
:1028980000043F4440200000003C4040207C0000F1
:1028A800001C2040201C0000001E2010201E0000DC
:1028B800002214081422000000064848483E000080
:1028C800004464544C4400000008364100000000F5
:1028D8000404040404040404004136080000000051
:1028E8000008082A1C08000000081C2A0808000024
:1028F800003C4241423C000000302860A060283083
:1029080020202020A020283020202020B020202097
:1029180000302820A020302020202022202228300B
:10292800202020223022202000302822202230207F
:10293800202020222122283020202022312220205D
:1029480000302822212230202020282828B02020CA
:10295800202028282830202000C0A82868B060201F
:1029680000008080443204000024252438202020E0
:1029780030242221242A1100008080403420202085
:1029880020202038203820182020382038203820CF
:10299800608080782038201820202038223922189A
:1029A8002020382239223820608080782239221865
:1029B80030202020242A11002030203028283820D8
:1029C80060808060302828382020302030282A185D
:1029D80020302030282A38206080806030282A382B
:1029E80020203E302828382020203E30282A382031
:1029F80020202020302828002020203028282020AF
:102A08000040A0B0282820202020202030282A009C
:102A180020202030282A20200040A0B0282A20206A
:102A28002020202030282A30202030282A3020203A
:102A38000018202030282A3020202020302A283250
:102A48002020302A28322020608080B2A87A2020D6
:102A580022252525252525192020201C2221202056
:102A680030282C2A203F20202020202020201F0032
:102A7800202020201F202020003040403F20202000
:102A8800202020203048483020203048483020205E
:102A98008040304848302020202020202220180064
:102AA800202020201A2020203040444030202020A0
:102AB80020202030283A2C18202030283A2C382082
:102AC80000181414182020200021222428100F0098
:102AD80000B0A87820202020202020A020A0283086
:102AE800202020A030A0202000608080A05010204E
:102AF800001E202020202020002030282820000030
:102B0800000402023A020201000004063D05040026
:102B1800000004B6AD7D0400000080C0BFA08000A6
:102B280004668595A8A848000000003F0000000042
:102B380000302820A02028300000302A2832000049
:102B48000030282220222830003028222122283054
:102B580000C0A8A828B0202000C0A8A8A83020201D
:102B680000C0A8AA2830202000002424243800000F
:102B78000000242524380000008080403000000038
:102B88000000808040340000608080782038201861
:102B98006080807822392218608080603028281868
:102BA8006080806030282A1800221408142200004F
:102BB80020203E302828180020203E30282A1800DF
:102BC800000040A0B0282800000040A0B02A28003B
:102BD80020202020202020200018202030282A30E3
:102BE80000608080B2A87A000030282C2A203F009C
:102BF8000040A9AAA8F0000000006080807E0000C4
:102C08000040AAA9AAF000000000C02030282830FF
:102C180000006080888060000000302828300000B4
:102C2800000000B0A87800000426252528100F0011
:102C38000422222629100F0000212224A8D0AFA0A8
:102C48000070AAA9AA3000000070AAA8AA30000043
:102C580000304040502808000030C040D02808000C
:102C68000000027902000000000002780200000063
:102C7800000000000005050500000004030B06061F
:102C8800A0A0A00000000000000001010101000058
:102C98000021222428102F20000000000004030334
:102CA8000000808080800000000010105410100088
:102CB80000000204020402002024262525202830D2
:102CC8002024262535202020086C8A8AA050102030
:102CD80004B6AD7D242020200019141518202020CA
:082CE8000402021A222221203D
:0400000508002419B2
:00000001FF
